:020000040800F2
:100000008004002049010008C518000835180008C0
:10001000C1180008D50500085D1B0008000000009D
:10002000000000000000000000000000F5180008BB
:100030001506000800000000C9180008F71800089D
:100040006301000863010008630100086301000800
:1000500063010008630100086301000863010008F0
:1000600063010008630100086301000863010008E0
:1000700063010008630100086301000863010008D0
:1000800063010008630100086301000863010008C0
:1000900063010008630100086301000863010008B0
:1000A00063010008630100086301000863010008A0
:1000B0006301000863010008630100086301000890
:1000C0006301000863010008630100086301000880
:1000D0006301000863010008630100086301000870
:1000E0006301000863010008630100086301000860
:1000F0006301000863010008630100086301000850
:10010000630100086301000863010008630100083F
:10011000630100086301000863010008630100082F
:10012000630100086301000863010008630100081F
:10013000DFF810D000F04EF800480047B71B000869
:10014000AFF300808004002006488047064800473F
:10015000FEE7FEE7FEE7FEE7FEE7FEE7FEE7FEE777
:10016000FEE7FEE76519000831010008202A04DBDC
:10017000203A21FA02F00021704721FA02F3D04020
:10018000C2F12002914008431946704740EA01033A
:100190009B0703D009E008C9121F08C0042AFAD23D
:1001A00003E011F8013B00F8013B521EF9D2704701
:1001B000D2B201E000F8012B491EFBD270470022A9
:1001C000F6E710B513460A4604461946FFF7F0FF56
:1001D000204610BD064C074D06E0E06840F00103E4
:1001E00094E8070098471034AC42F6D3FFF7A4FF19
:1001F000F81B0008181C000838B5044605A0006864
:1002000000908DF80040642303226946024801F003
:10021000B2FA38BD000D0A001400002000B589B004
:1002200000F0F0F820222248016801A8FFF7AEFF95
:10023000BDF804004AF65521884236D19DF80600E3
:1002400001282DD101A800F039F858B15520FFF749
:10025000D3FF322000F0D6FA15490968486801F04A
:10026000EBFA22E000BF00BF00BF00BF00BFBFF33A
:100270004F8F00BF00BF00BF0E48006800F4E06071
:100280000D490843001D0B49086000BF00BF00BFB7
:10029000BFF34F8F00BF00BF00BF00BF00BFFDE72F
:1002A00003490968486801F0C7FA09B000BD0000B9
:1002B000000000200CED00E00000FA052DE9F047F9
:1002C000CAB004464FF000094B496068884202D129
:1002D000DFF8289101E0DFF82091E06818B1E068CC
:1002E000B0F5643F06D9E420FFF786FF00204AB04E
:1002F000BDE8F087484600F043FA20B9E820FFF750
:100300007BFF0020F3E7A520FFF776FF00BF00206A
:1003100008903B48006800680890394800684068C9
:10032000089000BF00BF00BF3223012249A9344812
:1003300001F0C0F90028F7D04F46E56834E0802D81
:1003400001D9802000E0A8B282464FF47A73524669
:1003500029A92B4801F0AEF920B1E520FFF74CFFA9
:100360000020C4E7564600200CE029AA12F810200D
:100370004100491C29AB595C42EA012109AA22F833
:100380001010401CB0EB560FEFD3720809A9384685
:1003900000F0FEF808B9374404E0E620FFF72CFF30
:1003A0000020A4E7AD1B00BF002DC8D14846E1687E
:1003B00000F012F98046A168414504D0E720FFF71C
:1003C0001BFF002093E72022214601A8FFF7DEFE55
:1003D00000208DF806008DF8070007496068884204
:1003E00001D1064800E00448029001A800F0B8F8E6
:1003F00000BF01207BE700000060000800F0030858
:10040000140000202DE9F04F8FB0202252480168DF
:1004100007A8FFF7BBFE182101A8FFF7D0FE0024B4
:1004200096E00A2C00DB94E0182101A8FFF7C7FE34
:100430005A20FFF7E1FE4FF47A73142201A94748CE
:1004400001F038F906462EB1E120FFF7D5FE601C19
:10045000C4B27DE09DF804009DF8051040EA012833
:100460009DF806009DF8071040EA01209DF808104D
:1004700040EA01409DF8091040EA01699DF80A0030
:100480009DF80B1040EA01209DF80C1040EA014055
:100490009DF80D1040EA01659DF80E009DF80F10C3
:1004A00040EA01209DF8101040EA01409DF811102B
:1004B00040EA016A9DF812009DF8131040EA0120FD
:1004C0009DF8141040EA01409DF8151040EA016BB8
:1004D0009DF816009DF8171040EA012000900C21AD
:1004E0000DF1060000F078F807465F4505D0E220E0
:1004F000FFF782FE601CC4B22AE04AF65520804510
:1005000004D145F2AA510098884205D0E320FFF7B4
:1005100073FE601CC4B21BE015B1B5F5643F05D98C
:10052000E420FFF769FE601CC4B211E04AF65520D2
:10053000ADF81C0001208DF81E00CDF824900A951E
:10054000CDF82CA007A800F00BF80FB0BDE8F08F95
:1005500067E700BF00BFF8E700000020140000209C
:1005600010B588B0044620216846FFF728FE2022F7
:1005700021466846FFF70AFE044800F057F91022AA
:100580006946024800F004F808B010BD0090070862
:100590002DE9F04105460E4617464FF0000800F0E1
:1005A00019FA00240EE036F814C005EB4401624647
:1005B0000023012000F0B6F98046B8F1000F00D00A
:1005C00003E0641CBC42EED300BF00F0A1F940463A
:1005D000BDE8F08100BFFEE730B503460C464FF0A2
:1005E000FF3100220FE0985C4140002508E001F057
:1005F000010018B1064880EA510100E049086D1C6D
:10060000082DF4D3521CA242EDD3C84330BD0000E4
:100610002083B8ED704772B600BFFEE70021074A9D
:10062000D1610749096941F00401054A1161114688
:10063000096941F04001116170470000600000202D
:10064000002002400021074AD1610749096941F0B1
:100650000201054A116111464861096941F04001F2
:100660001161704760000020002002400022054B0D
:10067000DA61054A126942F00102034B1A610180F6
:1006800070470000600000200020024000201E494A
:10069000C96801F0100139B11C49C96941F0020172
:1006A0001A4AD16140F010001749C96801F00401ED
:1006B00039B11649C96941F00101144AD16140F0CC
:1006C00004001149C96901F0010169B10F49C96903
:1006D00041F004010D4AD16100BF0B49C96921F005
:1006E0000101094AD16100BF00BF40F201118842F7
:1006F00006D10549C96921F00101034AD16101E030
:100700000149C86000BF704700200240600000201F
:1007100070B5044600F016FB054609E0601C38B1D0
:1007200024B100F00FFB401BA04201D9032070BD93
:100730001248C06800F001000028EFD10F48C068DF
:1007400000F0200020B100BF20200C49C86000BF8D
:100750000A48C06800F0100048B90848C06900F0B5
:10076000010020B90548C06800F0040018B1FFF787
:100770008DFF0120DBE70020D9E7000000200240C8
:100780002DE9F04385B0064600F024F94FF07208D9
:10079000002000900120039000242DE006EBC427E8
:1007A0003D464FF00009002009E035F810104FF6E3
:1007B000FF72914202D04FF0010903E0401CB0F5F6
:1007C000806FF2D300BFB9F1000F00D113E00297A0
:1007D00004A9684600F044F828B100F099F8002018
:1007E00005B0BDE8F0830498401C18B100F090F803
:1007F0000120F5E700BF641C4445CFD300F088F822
:100800000120EDE770B5044600F09CFA0646254647
:10081000681C10B104480078054400BF00F092FA4B
:10082000801BA842FAD370BD0C00002030B585B003
:100830000446002500F0CEF80020009001900394BB
:1008400001200490694601A800F00AF818B100F0F0
:100850005FF800BFFEE700F05BF8284605B030BD4A
:100860002DE9F04104460E460127002500BF264829
:10087000007E012802D10220BDE8F081012022493A
:10088000087600BF2068022813D14CF25030FFF7E1
:100890003FFF90BB0120FFF7C1FE4CF25030FFF745
:1008A00037FF07461948006920F00400174908611E
:1008B00023E04CF25030FFF72BFFF0B94FF0FF3040
:1008C0003060A56812E02846FFF7BCFE4CF25030BD
:1008D000FFF71EFF07460D48006920F002000B4994
:1008E00008610FB1356007E005F50065D4E9021035
:1008F00001EBC020A842E6D800BF00BF002002499B
:10090000087600BF3846B7E76000002000200240AC
:100910000348006940F080000149086100207047E9
:10092000002002402DE9FE4F05468B4617469846AB
:10093000012600240020029000BF2448007E0128E8
:1009400002D10220BDE8FE8F01202049087600BFB9
:100950004CF25030FFF7DCFE064686BB012D02D17B
:100960000120029006E0022D02D10220029001E057
:100970000420029000241EE02201B946C2464846E7
:100980005146FFF7F3FB80B20190022000FB04B058
:1009900000900199FFF76AFE4CF25030FFF7B8FE65
:1009A00006460B48006920F001000949086106B1BC
:1009B00004E0601CC4B202988442DDDB00BF00BFCB
:1009C00000200249087600BF3046BBE760000020E7
:1009D0000020024000200849096901F0800151B15E
:1009E0000649054A5160064951601146096901F0FE
:1009F000800101B1012070470020024023016745BA
:100A0000AB89EFCD2DE9F847024600239C467BE1F8
:100A10004FF0010808FA03F4D1F8008008EA040056
:100A2000A0427DD1DFF8F4A2D1F80480A8EB0A0936
:100A3000D0453AD014DCB8F1030F50D009DCB8F13E
:100A4000000F31D0B8F1010F1CD0B8F1020F49D11D
:100A500020E0B8F1110F18D0B8F1120F42D11EE00A
:100A6000B9F5881F25D006DCB9F5803F20D0B9F54F
:100A7000801F37D11AE0B9F5001F18D0B9F5041F4F
:100A800030D117E0D1F80CC02DE0D1F80C8008F17E
:100A9000040C28E0D1F80C8008F1080C23E0D1F810
:100AA0000C8008F10C0C1EE000BF00BF00BF00BFAF
:100AB00000BF00BFD1F80880B8F1000F02D14FF09D
:100AC000040C0BE0D1F80880B8F1010F03D14FF00E
:100AD000080C146102E04FF0080C546103E04FF081
:100AE000000C00E000BF00BFFF2801D8904601E0E5
:100AF00002F104084646FF2802D84FEA830803E0C3
:100B0000A3F108084FEA88084746D6F800804FF05E
:100B10000F0909FA07F928EA09080CFA07F900E0B1
:100B20007AE048EA0908C6F80080D1F8048008F0A5
:100B30008058B8F1805F6FD100BFDFF8E481D8F84A
:100B4000188048F00108DFF8D891C9F81880C84625
:100B5000D8F8188008F00108CDF8008000BF00BF69
:100B60004FEAB9384FEA930958F829504FEA837889
:100B70004FEA18794FF00F0808FA09F825EA080536
:100B8000DFF8A081424502D14FF0000824E0DFF8F1
:100B90009881424502D14FF001081DE0DFF88C81B9
:100BA000424502D14FF0020816E0DFF88481424549
:100BB00002D14FF003080FE0DFF87881424502D1FF
:100BC0004FF0040808E0DFF87081424502D14FF091
:100BD000050801E04FF006084FEA83794FEA1979DA
:100BE00008FA09F848EA0505DFF850814FEA930949
:100BF00048F82950D1F8048008F48018B8F5801F0F
:100C00000BD1DFF83C81D8F8008048EA0008DFF813
:100C10003091C9F800800AE075E0DFF82481D8F847
:100C2000008028EA0008DFF81891C9F80080D1F8A0
:100C3000048008F40018B8F5001F0ED1DFF8008119
:100C400008F10408D8F8008048EA0008DFF8F090BE
:100C500009F10409C9F800800DE0DFF8E48008F12B
:100C60000408D8F8008028EA0008DFF8D49009F1D9
:100C70000409C9F80080D1F8048008F40038B8F5F8
:100C8000003F0ED1DFF8B880A8F10408D8F8008042
:100C900048EA0008DFF8A890A9F10409C9F8008023
:100CA0000DE0DFF89C80A8F10408D8F8008028EA5D
:100CB0000008DFF88C90A9F10409C9F80080D1F888
:100CC000048008F48038B8F5803F0ED1DFF87080DA
:100CD000A8F10808D8F8008048EA0008DFF860901A
:100CE000A9F10809C9F800800DE0DFF85480A8F1E7
:100CF0000808D8F8008028EA0008DFF84490A9F135
:100D00000809C9F800805B1CD1F8008028FA03F8B4
:100D1000B8F1000F7FF47CAEBDE8F8870000111039
:100D20000010024000080140000C0140001001408A
:100D30000014014000180140001C0140080001405F
:100D400008040140014800687047000004000020CA
:100D5000034800680349097808440149086070475E
:100D6000040000200C00002010B50848006840F086
:100D7000100006490860032000F098F80F2000F0EA
:100D800007F800F02BF8002010BD00000020024002
:100D900070B504460E4800784FF47A71B1FBF0F05C
:100DA0000C490968B1FBF0F5284600F0E9FB08B1F1
:100DB000012070BD102C07D200222146501E00F0E9
:100DC00037F80548046001E00120F2E70020F0E771
:100DD0000C000020100000200800002008B500BF13
:100DE0001148806940F001000F4988610846806918
:100DF00000F00100009000BF00BF00BF0846C069BE
:100E000040F08050C8610846C06900F080500090F2
:100E100000BF00BF00BF0549486820F0E06040F017
:100E20000070486000BF08BD001002400000014093
:100E30002DE9F05F80460D461646002700F090FE33
:100E4000074639462A46334601F00700C0F1070A33
:100E5000BAF1040F02D94FF0040A01E0C0F1070A09
:100E6000D14600F1040ABAF1070F02D24FF0000A8E
:100E700001E0A0F1030AD4464FF0010A0AFA09FA88
:100E8000AAF1010A0AEA020A0AFA0CFA4FF0010B67
:100E90000BFA0CFBABF1010B0BEA030B4AEA0B0458
:100EA0002146404600F064FEBDE8F09F00BF00F020
:100EB0000702064B19684FF6FF031940044B0B431A
:100EC00043EA0221014B196000BF70470CED00E0BE
:100ED0000000FA0570B504460D460CB9012070BD3E
:100EE0005A48006800F00700A8420ED25748006830
:100EF00020F007002843554908600846006800F0C4
:100F00000700A84201D00120E9E7207800F00200A4
:100F100002281DD1207800F00400042805D14C4897
:100F2000406840F4E0604A494860207800F00800DA
:100F3000082805D14648406840F46050444948605C
:100F40004348406820F0F000A168084340494860E9
:100F5000207800F0010078B36068012806D13C4891
:100F6000006800F4003090B90120B8E760680228FA
:100F700006D13748006800F0007040B90120AEE7A4
:100F80003348006800F0020008B90120A7E73048A4
:100F9000406820F00300616808432D494860FFF76E
:100FA000D1FE064609E0FFF7CDFE801B41F28831F5
:100FB000884202D9032092E707E02548406800F004
:100FC0000C006168B0EB810FEDD12048006800F0A3
:100FD0000700A8420ED91D48006820F007002843EA
:100FE0001A4908600846006800F00700A84201D0CE
:100FF000012074E7207800F00400042807D1144889
:10100000406820F4E060E1680843114948602078B6
:1010100000F00800082808D10D48406820F460500E
:10102000216940EAC1000A49486000F03FF80849D8
:101030004968C1F30311074A515CC840064908607A
:1010400006480068FFF7A4FE002048E700200240A1
:1010500000100240E01B00081000002008000020E3
:1010600001480068704700001000002000B5FFF73D
:10107000F7FF04494968C1F30221034A515CC840A3
:1010800000BD000000100240F01B000800B5FFF793
:10109000E7FF04494968C1F3C221034A515CC840D3
:1010A00000BD000000100240F01B000870B50021D8
:1010B0000022002400230020134D696801F00C0574
:1010C000F5B1042D02D0082D19D101E00F4819E027
:1010D0000F4DC1F38346AB5D01F4803555B10A4D28
:1010E0006D68C5F340450B4E725D084D5D43B5FB21
:1010F000F2F402E0084D03FB05F4204602E000BFD5
:10110000024800BF00BF70BD0010024000127A000C
:10111000CE1B0008DE1B000800093D00F8B50446A0
:101120000CB90120F8BD207800F00100002878D02B
:10113000F848406800F00C0004280CD0F5484068DE
:1011400000F00C00082811D1F248406800F480300B
:10115000B0F5803F0AD1EF48006800F40030002865
:101160005FD0606800285CD10120DBE700BF6068C9
:10117000B0F5803F06D1E748006840F48030E5498B
:10118000086028E0606858B9E248006820F48030C0
:10119000E04908600846006820F4802008601AE0F2
:1011A0006068B0F5A02F0BD1DA48006840F48020C9
:1011B000D84908600846006840F4803008600AE0BA
:1011C000D448006820F48030D2490860084600689E
:1011D00020F48020086000BF606888B1FFF7B2FD8E
:1011E000054606E0FFF7AEFD401B642801D9032049
:1011F00098E7C848006800F400300028F2D010E0FA
:10120000FFF7A0FD054606E0FFF79CFD401B6428A4
:1012100001D9032086E7BF48006800F400300028A9
:10122000F2D1207800F00200022857D1B948406876
:1012300000F00C0050B1B748406800F00C000828DE
:1012400018D1B448406800F4803098B9B1480068BB
:1012500000F0020020B12069012801D0012061E7DF
:10126000AC48006820F0F800616940EAC100A94973
:10127000086033E02069E8B10120A7490860FFF762
:1012800061FD054606E0FFF75DFD401B022801D920
:10129000032047E79F48006800F002000028F2D0D2
:1012A0009C48006820F0F800616940EAC100994953
:1012B000086013E0002098490860FFF743FD0546E9
:1012C00006E0FFF73FFD401B022801D9032029E774
:1012D0009048006800F002000028F2D1207800F069
:1012E000080008282DD1A069B8B101208B490860F9
:1012F000FFF728FD054606E0FFF724FD401B022806
:1013000001D903200EE78348406A00F0020000285C
:10131000F2D0012000F0DAFA13E000207F490860E3
:10132000FFF710FD054606E0FFF70CFD401B022805
:1013300001D90320F6E67748406A00F00200002851
:10134000F2D1207800F00400042873D100277148FE
:10135000C06900F0805070B900BF6E48C06940F0AD
:1013600080506C49C8610846C06900F08050009008
:1013700000BF00BF01276A48006800F48070B0B960
:101380006748006840F4807065490860FFF7DAFC40
:10139000054606E0FFF7D6FC401B642801D9032070
:1013A000C0E65F48006800F480700028F2D000BFFB
:1013B000E068012806D15748006A40F0010055490D
:1013C000086227E0E06858B95248006A20F001003E
:1013D000504908620846006A20F00400086219E0DB
:1013E000E06805280BD14B48006A40F004004949E9
:1013F00008620846006A40F0010008620AE04548B9
:10140000006A20F00100434908620846006A20F0A3
:101410000400086200BFE068A0B1FFF793FC054636
:1014200009E0FFF78FFC401B41F28831884202D966
:10143000032077E622E03748006A00F00200002827
:10144000EFD012E0FFF77EFC054608E0FFF77AFCDC
:10145000401B41F28831884201D9032062E62D48C1
:10146000006A00F002000028F0D1012F05D12948C0
:10147000C06920F080502749C86100BFE069C8B347
:101480002448406800F00C00082860D0E069022879
:1014900048D1002020490866FFF754FC054606E0C5
:1014A000FFF750FC401B022801D903203AE61948F7
:1014B000006800F000700028F2D1206AB0F5803F8B
:1014C00007D11448406820F40030A168084311494E
:1014D0004860D4E9080108430E49496821F47411B1
:1014E00008430C49486001200B490866FFF72AFCB5
:1014F000054607E03DE0FFF725FC401B022801D927
:1015000003200FE60348006800F000700028F2D0C6
:101510002FE00000001002400000424280044242DE
:1015200000700040002014490866FFF70BFC0546D8
:1015300006E0FFF707FC401B022801D90320F1E574
:101540000E48006800F000700028F2D111E0E06958
:10155000012800D1E6E50948466806F48031206A92
:10156000814204D106F47011606A814201D00120E9
:10157000D8E50020D6E500000000424200100240FD
:1015800070B504462546681EB0F1807F01D3012066
:101590000FE0681E4FF0E02148610F214FF0FF304F
:1015A00000F0E6FA00204FF0E02188610720086192
:1015B000002070BD10B504460CB9012010BDA06913
:1015C00000B100E000BF94F8410028B9002084F881
:1015D0004000204600F02AF8242084F841002068CA
:1015E000C06820F400502168C860204600F0F2F97D
:1015F0002068006920F490402168086120684069F3
:1016000020F02A00216848612068C06840F400503A
:101610002168C86000206064202084F8410084F8BC
:1016200042000020606300BFC8E7000010B586B02C
:101630000446002002900390049005901A49206807
:1016400088422ED100BF1948806940F48040174974
:1016500088610846806900F48040019000BF00BFA7
:1016600000BF0846806940F0040088610846806930
:1016700000F00400019000BF00BF48150290022056
:1016800003900320059002A90948FFF7BBF94FF426
:101690008060029000200390049002A90448FFF7A4
:1016A000B1F906B010BD0000003801400010024042
:1016B000000801402DE9F84F04460E4617469946AA
:1016C0004FF0000A94F84200202852D106B117B911
:1016D0000120BDE8F88F00206064222084F84200D9
:1016E00000202063FFF72EFB8246A785E785A068D0
:1016F000B0F5805F04D1206910B90025B04602E042
:1017000035464FF000082CE05346002220212046A9
:10171000CDF8009000F0DCF920B1202084F84200E0
:101720000320D6E745B920684068C0F30800A8F850
:10173000000008F1020811E0A068B0F5805F03D056
:10174000A06828B9206918B920684068287004E0AA
:101750002068406800F07F0028706D1CE08D401EFE
:10176000E085E08D0028CFD1202084F842000020C1
:10177000AFE70220ADE72DE9F84F04460E461746C5
:1017800099464FF0000A94F84100202850D106B144
:1017900017B90120BDE8F88F00206064212084F88B
:1017A0004100FFF7CFFA8246A784E784A068B0F52E
:1017B000805F04D1206910B90025B04602E03546AB
:1017C0004FF000081EE05346002280212046CDF84D
:1017D000009000F07DF920B1202084F84100032022
:1017E000D8E745B9B8F80000C0F3080021684860A0
:1017F00008F1020803E02878216848606D1CE08C3D
:10180000401EE084E08C0028DDD1534600224021B8
:101810002046CDF8009000F05BF920B1202084F83C
:1018200041000320B6E7202084F841000020B1E702
:101830000220AFE700BFFEE770B504462068074905
:101840000840B0F1005F08D1054804606568206871
:1018500080F3088800BFA84700BF70BD0000FE2FBE
:1018600008ED00E008B500BF0648806940F00400BC
:10187000044988610846806900F00400009000BFB8
:1018800000BF08BD0010024010B50B480B490860AE
:101890004FF4E1304860002108488160C160016177
:1018A0000C21416100218161C161FFF783FE08B114
:1018B000FEF7B1FE10BD000000380140140000200A
:1018C00000BFFEE700BFFEE77047000008B508490B
:1018D0000968C9084FF47A72B1FBF2F141430091F3
:1018E00000BF00BF00994A1E00920029F9D108BD2F
:1018F00010000020704710B5FFF72AFA10BD00B5A0
:101900008FB0282105A8FEF75AFC14216846FEF77F
:1019100056FC01200590000406900020079001204D
:10192000099002200C90C1030D914FF4E0110E912B
:1019300005A8FFF7F3FB08B1FEF76DFE0F2000903E
:1019400002200190002002904FF48060039000205C
:10195000049002216846FFF7BDFA08B1FEF75BFE6E
:101960000FB000BD704700BF00BF02680C3252E8E4
:10197000002F22F4907102680C3242E80013002B11
:10198000F3D100BF00BF00BF0268143252E8002F3D
:1019900022F001010268143242E80013002BF3D157
:1019A00000BF016B01290ED100BF00BF02680C32DD
:1019B00052E8002F22F0100102680C3242E80013B6
:1019C000002BF3D100BF202180F8421000210163D9
:1019D0007047000070B504462168096921F4405140
:1019E000E2681143226811612269A16811436269AA
:1019F00041EA02052168C96841F20C62914329431A
:101A00002268D1602168496921F44071A2691143BB
:101A1000226851612D4A2168914202D1FFF736FBBD
:101A200001E0FFF723FB00EBC00101EB001162684E
:101A30009200B1FBF2F100EBC00202EB001263680E
:101A40009B00B2FBF3F26423B2FBF3F202EBC2039E
:101A500003EB0212A1EB8201322202EB011164229C
:101A6000B1FBF2F101F0F00100EBC00202EB001259
:101A700063689B00B2FBF3F26423B2FBF3F201EB69
:101A8000021200EBC00101EB001163689B00B1FB87
:101A9000F3F100EBC00303EB00136668B600B3FB81
:101AA000F6F36426B3FBF6F303EBC30606EB03136E
:101AB000A1EB8301322303EB01116423B1FBF3F1AA
:101AC00001F00F0111442268916070BD003801409F
:101AD0002DE9F84304460D4617469846089E31E026
:101AE000701C70B3FFF72EF9A0EB0800B04200D8CD
:101AF00016B90320BDE8F8832068C06800F0040030
:101B0000F8B1802D1ED0402D1CD020680068C0F395
:101B1000C000B0B100BF00200090206800680090B5
:101B200020684068009000BF00BF2046FFF71BFF01
:101B30000820606400BF002084F8400000BF01203E
:101B4000D8E7FFE7206800682840A84201D10120BB
:101B500000E00020B842C3D00020CBE700BFFEE782
:101B600002480068C0F30220704700000CED00E05E
:101B700010B5002804DB0A07130E054A135406E0CB
:101B80000A07140E034A00F00F031B1FD45410BDA4
:101B900000E400E018ED00E002E008C8121F08C1F0
:101BA000002AFAD170477047002001E001C1121FDE
:101BB000002AFBD17047FFF7D7F8FFF7A0FEFFF729
:101BC00051FEFFF761FEFEF729FB00BFFEE70203AF
:101BD0000405060708090A0B0C0D0E0F1010010270
:101BE00000000000000000000102030406070809CD
:101BF0000000000001020304181C0008000000207F
:101C000014000000981B00082C1C00081400002081
:101C10006C040000A81B00080090070800000000EA
:0C1C2000100000000100000000127A001B
:0400000508000131BD
:00000001FF
